:100000000C9434000C9446000C9446000C9446006A
:100010000C9448000C9446000C9446000C94460046
:100020000C9446000C9446000C9446000C94460038
:100030000C9446000C9446000C9446000C94460028
:100040000C9446000C9446000C9446000C94460018
:100050000C9446000C9401010C9446000C9446004C
:100060000C9446000C94460011241FBECFEFD8E03C
:10007000DEBFCDBF21E0A0E0B1E001C01D92A730FE
:10008000B207E1F70E94B5010C94FF030C94000045
:100090001F920F920FB60F9211248F939F93329B52
:1000A00018C0319916C0309914C017BC18BC8FEF16
:1000B0008093B300809104018093B4008FEF90E0AF
:1000C000909389008093880010928B0010928A0090
:1000D00091C0329918C0319B16C0309B14C08FEF6D
:1000E00087BD8091040188BD1092B3001092B400C6
:1000F0008FEF90E0909389008093880010928B009E
:1001000010928A0077C0329919C0319B17C030997C
:1001100015C08FEF87BD18BC1092B3001092B400C9
:100120008FEF90E090938900809388008091040184
:1001300090E090938B0080938A005CC0329916C047
:10014000319914C0309B12C08FEF87BD909104018C
:1001500098BD8093B3001092B40010928900109261
:10016000880010928B0010928A0044C0329B16C007
:10017000319914C0309B12C08FEF87BD18BC80939B
:10018000B300809104018093B40010928900109212
:10019000880010928B0010928A002CC0329B19C0EC
:1001A000319B17C0309915C017BC18BC8FEF8093D6
:1001B000B3001092B4008FEF90E090938900809389
:1001C00088008091040190E090938B0080938A00D6
:1001D00011C08FEF87BD18BC8093B3001092B4009C
:1001E0008FEF90E0909389008093880010928B00AD
:1001F00010928A009F918F910F900FBE0F901F90C9
:1002000018951F920F920FB60F9211242F933F93C0
:100210004F935F936F937F938F939F93AF93BF930E
:10022000EF93FF93609178007091790070930301D0
:1002300060930201663C71051CF4109204013CC0FD
:100240006D3283E07807ACF5072E000C880B990B14
:100250000E94060320E030EC4FE754E40E945C0269
:1002600020E030E04FE753E40E94920323EC35E7AF
:1002700048E252E40E94EF010E94CE027093010115
:1002800060930001072E000C880B990B0E94060357
:100290002DE33CEB4EE253E40E945C0220E030E0B0
:1002A0004FE753E40E9492030E94D5026093040139
:1002B00003C08FEF80930401FF91EF91BF91AF9145
:1002C0009F918F917F916F915F914F913F912F916E
:1002D0000F900FBE0F901F90189587E280936C00CF
:1002E00082E080936800089584E480937C008EE827
:1002F00080937A000895E0E8F0E080818162808355
:10030000E1E8F0E08081896080830895E0E8F0E032
:100310008081816C8083E1E8F0E080818960808366
:100320000895E0EBF0E0808183628083E1EBF0E010
:100330008081816080830895E0EBF0E08081836CB0
:100340008083E1EBF0E0808181608083089584B553
:10035000836284BD85B5816085BD089584B5836C55
:1003600084BD85B5816085BD08958AB18C668AB9E2
:1003700084B18F6084B93D9A78940E946D010E9487
:100380007B010E9486010E9491010E949C010E94B3
:10039000A7010E94AE010E9474012FEF89E698E147
:1003A000215080409040E1F700C000005A9A2FEFA2
:1003B00080E792E0215080409040E1F700C00000CB
:1003C00081E085B910920401EAE7F0E08081806461
:1003D0008083808186FDFDCF459A4598F7CF5058A0
:1003E000BB27AA270E9407020C9458030E944A03C5
:1003F00038F00E94510320F039F49F3F19F426F49D
:100400000C9447030EF4E095E7FB0C944103E92FAD
:100410000E94690358F3BA176207730784079507A8
:1004200020F079F4A6F50C948B030EF4E0950B2ED6
:10043000BA2FA02D0B01B90190010C01CA01A00136
:100440001124FF27591B99F0593F50F4503E68F191
:100450001A16F040A22F232F342F4427585FF3CFD2
:10046000469537952795A795F0405395C9F77EF4A3
:100470001F16BA0B620B730B840BBAF09150A1F0EC
:10048000FF0FBB1F661F771F881FC2F70EC0BA0F72
:10049000621F731F841F48F4879577956795B795FA
:1004A000F7959E3F08F0B0CF9395880F08F09927F5
:1004B000EE0F9795879508950E9470020C9458034B
:1004C0000E94510358F00E944A0340F029F45F3F14
:1004D00029F00C94410351110C948C030C944703A4
:1004E0000E94690368F39923B1F3552391F3951B97
:1004F000550BBB27AA2762177307840738F09F5F45
:100500005F4F220F331F441FAA1FA9F335D00E2EB1
:100510003AF0E0E832D091505040E695001CCAF71E
:100520002BD0FE2F29D0660F771F881FBB1F2617E1
:1005300037074807AB07B0E809F0BB0B802DBF01B8
:10054000FF2793585F4F3AF09E3F510578F00C9487
:1005500041030C948C035F3FE4F3983ED4F38695FB
:1005600077956795B795F7959F5FC9F7880F911DA8
:100570009695879597F90895E1E0660F771F881F94
:10058000BB1F621773078407BA0720F0621B730B47
:10059000840BBA0BEE1F88F7E09508950E94D502F0
:1005A0006894B1110C948C0308950E94710388F033
:1005B0009F5798F0B92F9927B751B0F0E1F0660F27
:1005C000771F881F991F1AF0BA95C9F714C0B13068
:1005D00091F00E948B03B1E008950C948B03672F78
:1005E000782F8827B85F39F0B93FCCF38695779597
:1005F0006795B395D9F73EF4909580957095619580
:100600007F4F8F4F9F4F0895E89409C097FB3EF4AA
:1006100090958095709561957F4F8F4F9F4F99234F
:10062000A9F0F92F96E9BB279395F69587957795CD
:100630006795B795F111F8CFFAF4BB0F11F460FF8D
:100640001BC06F5F7F4F8F4F9F4F16C0882311F0E5
:1006500096E911C0772321F09EE8872F762F05C0F9
:10066000662371F096E8862F70E060E02AF09A9594
:10067000660F771F881FDAF7880F9695879597F989
:10068000089597F99F6780E870E060E008959FEF14
:1006900080EC089500240A94161617061806090619
:1006A000089500240A9412161306140605060895E8
:1006B000092E0394000C11F4882352F0BB0F40F470
:1006C000BF2B11F460FF04C06F5F7F4F8F4F9F4FB0
:1006D000089557FD9058440F551F59F05F3F71F032
:1006E0004795880F97FB991F61F09F3F79F0879599
:1006F0000895121613061406551FF2CF4695F1DF22
:1007000008C0161617061806991FF1CF86957105B1
:10071000610508940895E894BB2766277727CB01E5
:1007200097F908950E94A5030C9458030E944A0368
:1007300038F00E94510320F0952311F00C944103EE
:100740000C94470311240C948C030E94690370F3EA
:10075000959FC1F3950F50E0551F629FF001729F66
:10076000BB27F00DB11D639FAA27F00DB11DAA1F75
:10077000649F6627B00DA11D661F829F2227B00DC2
:10078000A11D621F739FB00DA11D621F839FA00D4D
:10079000611D221F749F3327A00D611D231F849F9D
:1007A000600D211D822F762F6A2F11249F575040F4
:1007B0009AF0F1F088234AF0EE0FFF1FBB1F661F6F
:1007C000771F881F91505040A9F79E3F510580F038
:1007D0000C9441030C948C035F3FE4F3983ED4F3F4
:1007E000869577956795B795F795E7959F5FC1F7DC
:1007F000FE2B880F911D9695879597F90895F8948B
:02080000FFCF28
:00000001FF
